:100000000C945C000C9479000C9479000C947900A9
:100010000C9479000C9479000C9479000C9479007C
:100020000C9479000C9479000C9479000C9479006C
:100030000C9479000C9479000C9479000C9479005C
:100040000C9454010C9479000C9479000C94790070
:100050000C9479000C9479000C9479000C9479003C
:100060000C9479000C947900000000080002010053
:100070000003040700000000000000000000000072
:10008000250028002B0000000000240027002A0083
:10009000040404040404040402020202020203032E
:1000A0000303030301020408102040800102040836
:1000B000102001020408102011241FBECFEFD8E049
:1000C000DEBFCDBF11E0A0E0B1E0EAE3F5E002C0A1
:1000D00005900D92A030B107D9F721E0A0E0B1E082
:1000E00001C01D92A930B207E1F70E949E010C9455
:1000F0009B020C94000090E0FC01EC55FF4F249112
:1001000080579F4FFC018491882399F090E0880FDD
:10011000991FFC01EA57FF4FA591B491FC01E458E7
:10012000FF4F859194918FB7F894EC91E22BEC936B
:100130008FBF089590E0FC01E859FF4F2491FC0126
:10014000EC55FF4F3491FC01E057FF4FE491EE2353
:10015000C9F0222339F0233001F1A8F4213019F13C
:10016000223029F1F0E0EE0FFF1FE458FF4FA59178
:10017000B4918FB7F894EC91611126C030953E236D
:100180003C938FBF08952730A9F02830C9F0243060
:1001900049F7809180008F7D03C0809180008F7728
:1001A00080938000DFCF84B58F7784BDDBCF84B5AB
:1001B0008F7DFBCF8091B0008F778093B000D2CF3E
:1001C0008091B0008F7DF9CF3E2BDACF1F93CF9374
:1001D000DF93182FEB010E947B00209739F460E039
:1001E000812FDF91CF911F910C949A00CF3FD105C1
:1001F00011F461E0F5CFE12FF0E0E859FF4FE49111
:10020000E33031F140F4E130B1F0E230E1F0C038F8
:10021000D1057CF7E4CFE73029F1E83059F1E4303B
:10022000B1F780918000806280938000D0938B0032
:10023000C0938A0004C084B5806884BDC7BDDF91C7
:10024000CF911F91089584B5806284BDC8BDF7CF5A
:1002500080918000806880938000D0938900C09353
:100260008800EDCF8091B00080688093B000C0938B
:10027000B300E5CF8091B00080628093B000C0935E
:10028000B400DDCF8E50806480937C0080917A0032
:10029000806480937A0080917A0086FDFCCF809103
:1002A00078009091790008951F920F920FB60F92E7
:1002B00011242F933F938F939F93AF93BF9380917C
:1002C000050190910601A0910701B09108013091BC
:1002D000040123E0230F2D3758F50196A11DB11D10
:1002E000209304018093050190930601A0930701D8
:1002F000B09308018091000190910101A091020149
:10030000B09103010196A11DB11D8093000190934E
:100310000101A0930201B0930301BF91AF919F919E
:100320008F913F912F910F900FBE0F901F901895B6
:1003300026E8230F0296A11DB11DD2CF789484B573
:10034000826084BD84B5816084BD85B5826085BDD1
:1003500085B5816085BD80916E00816080936E005F
:100360001092810080918100826080938100809151
:100370008100816080938100809180008160809302
:1003800080008091B10084608093B1008091B000C2
:1003900081608093B00080917A00846080937A00BD
:1003A00080917A00826080937A0080917A008160E7
:1003B00080937A0080917A00806880937A0010920E
:1003C000C10087E00E947B0086E00E947B0085E000
:1003D0000E947B0084E00E947B0089E00E947B00F9
:1003E0008AE00E947B00A12C22E0B22E30E0832E16
:1003F00030E0932E8EE00E9442018C018FE00E943B
:100400004201EC01D801B250013082E018071CF41F
:10041000D501A01BB10B2FEF30E00E9494022B01FD
:100420003C0199E075946794579447949A95D1F755
:10043000DE01B250C13082E0D8071CF4D501AC1BFC
:10044000BD0B2FEF30E00E9494026B017C0189E02C
:10045000F594E794D794C7948A95D1F7013082E058
:10046000180764F161E087E00E949A0060E086E08E
:100470000E949A00B20189E00E94E60061E085E0F6
:100480000E949A0060E084E00E949A00B2018AE033
:100490000E94E600C13082E0D8076CF1B60189E025
:1004A0000E94E60070E060E08AE00E94E6008114AD
:1004B000910409F49FCF0E9400009CCF01151240C7
:1004C00091F060E087E00E949A0061E086E00E947F
:1004D0009A00B20189E00E94E60060E085E00E9497
:1004E0009A0061E0D0CF70E060E089E00E94E60011
:1004F00070E060E0CCCFC115D240C9F270E060E09E
:1005000089E00E94E600B601CFCFA29FB001B39F61
:10051000C001A39F700D811D1124911DB29F700D0C
:10052000811D1124911D08950E948502B7FF089531
:0A053000821B930B0895F894FFCF8F
:00000001FF
